:100000000810002097A2000095A200004FA4000055
:1000100095A2000095A2000095A2000095A2000004
:1000200095A2000095A200005CBE000095A2000011
:1000300095A200000CBE000095A2000095A2000051
:1000400095A2000095A2000095A2000095A20000D4
:1000500095A2000095A2000095A2000095A20000C4
:1000600095A2000095A2000095A2000095A20000B4
:1000700095A2000095A2000095A2000095A20000A4
:1000800095A2000095A2000095A2000095A2000094
:1000900095A2000095A2000095A2000095A2000084
:1000A00095A2000095A2000095A2000095A2000074
:1000B00095A20000A98B000095A20000E195000028
:1000C000D3BC0000CFBC0000E18D0000DFBC00000D
:1000D000D7BC0000B9950000DBBC000021960000F1
:1000E000ED7700003D7800009196000095A2000099
:1000F00095A2000095A2000095A2000095A2000024
:1001000095A2000095A2000095A2000095A2000013
:1001100095A2000095A2000095A2000095A2000003
:1001200095A2000095A2000095A2000095A20000F3
:1001300095A2000095A2000095A2000095A20000E3
:1001400070B506468AB032480BF099FA3148324B06
:1001500000210360314B324C436004F001FA2AA3C2
:10016000D3E900232060CDE900234FF0FF334FF0A7
:10017000FF320BF0FDFA02224FF0FF3120680BF046
:10018000F9FA00239422CDE9073309933C23CDE902
:1001900003320593962303A92068069304F0B2FA6C
:1001A00002F08EF92546014620680BF0F8FA206827
:1001B0000BF063FBB6F9001055F8080B0BF004FBCD
:1001C0007668D6B928460AF0DFFFA37B66F3000302
:1001D000A373202310222384124B83F8212383F856
:1001E000222383F8262383F8252383F8232383F807
:1001F000202383F824230AB070BD3068A060B28841
:10020000B379AA80AB71E4E7085500510000000003
:10021000690345ECA01A0020793A0000B01A0020CA
:10022000C01A002000E100E00348044B834202D0E2
:10023000034B03B1184770477C1000207C1000204E
:1002400000000000064B0749C91A891048BF013158
:10025000491003D0044B0BB101481847704700BF49
:100260007C1000207C1000200000000010B5064C1F
:10027000237843B9FFF7D8FF044B13B10448AFF319
:1002800000800123237010BD6C23002000000000BB
:100290008006010008B5054B1BB105490548AFF3C1
:1002A0000080BDE80840FFF7CDBF00BF00000000A0
:1002B000A01200208006010010B5234C01F082FC42
:1002C00001F08AFD236F23F0070343F00303236744
:1002D0000AF018FB1D4B00209B6A9B075EBF0122A2
:1002E0001B4B9A62D4F8203123F0030343F002033E
:1002F000C4F82031D4F8243123F0070343F002037B
:10030000C4F82431D4F8403123F0030343F002034E
:10031000C4F84031D4F8603123F0030343F0020302
:10032000C4F86031D4F8403223F0030343F00203F1
:10033000C4F84032D4F8003223F0070343F002033C
:10034000C4F8003210BD00BF0080005000C0005053
:1003500000E00050064B0748DA1C121AC11E22F0BA
:100360000302994288BF002203490BF000BD00BF81
:100370007C1000200810002094060100064B07485E
:10038000DA1C121AC11E22F00302994288BF002211
:1003900000210BF0E4BC00BFA42300207C1000204F
:1003A0000348044A0449121A921009F081BF00BFA1
:1003B0000807010008070100A42300204FF40041B2
:1003C0004FF0FF30124B134A10B59A60D3F88820D3
:1003D00042F47002C3F888200F4A916601F1884107
:1003E00001F5005210664FF6DF7050660220C3F828
:1003F000D000BFF34F8FBFF36F8F08244FF440330B
:100400000648C0F88041D36004600B6110BD00BF96
:1004100000ED00E0000000000090005000E100E06E
:10042000014B1868704700BF0C100020084B1B6F71
:1004300003F00703022B04D0032B05D0012B05D0BA
:10044000FEE7044B18687047034BFBE7034870470F
:10045000008000500C10002014100020002D3101ED
:1004600008B5FFF7E3FF054B1B6FC3F303330133FD
:10047000B0FBF3F0024B186008BD00BF00800050D5
:10048000081000200048704700B4C404014B1868ED
:10049000704700BF14100020054B1860054B1B6F00
:1004A00003F00703032B01D1FFF7DABF704700BF4A
:1004B000141000200080005000487047002D3101CA
:1004C000014B1868704700BF1010002010B5154B85
:1004D000ADF5087D03AC0FCB84E80F002C22002182
:1004E00007A80BF03CFCFF234FF4947200213EA8B8
:1004F0008DF81D300BF033FC482200210DEB02007B
:100500000BF02DFC6822002124A80BF028FC00949D
:1005100024AB12AA3EA907A800F0E2F80DF5087D69
:1005200010BD00BFE0BD00000122044B1A70002383
:10053000034A1370034A1370704700BF6F230020F3
:100540006E2300206D230020002238B5134B144C7D
:100550001A700122134B1A7023689A78EAB1DA787C
:10056000DAB11A78510707D5986A09F04FFF18B128
:100570004FF4C03000F0B4F923681A7892070CD514
:100580005D6809F02BFF854207D923684FF4C0301E
:10059000596ABDE8384000F07BB938BD6F230020B0
:1005A000D01200206E23002007B5024601200B4622
:1005B000064908700649074809680091064900681D
:1005C000096800F0C9FB03B05DF804FB6D2300204F
:1005D000CC120020C8120020D0120020044A054985
:1005E0000548202312680968006800F07BBB00BF43
:1005F000C0120020C4120020C8120020094B1A6843
:10060000D37892782AB1002B41F20C0018BF002059
:10061000704741F20C0240F20570002B08BF1046F3
:10062000704700BFD012002008B5FFF745FE02F06A
:10063000FBF902F0E9F901F037FFBDE80840014895
:100640000AF00FBDB812002010B5234B234C1868D8
:100650001B7992B08DF80C3023880290ADF80D30E4
:10066000A37868468DF80F300AF009FD41F608338B
:10067000ADF810309DF80630BDF80420C3F3000338
:100680008DF8183040F60223ADF82830002300988A
:10069000ADF816208DF82A30CDF8120002F002FADB
:1006A00002F006FA2046032102F008FA02F00EFAE0
:1006B00002F0F2F9112102A80AF0F5FC03210AA8C0
:1006C0000AF0F8FC01200AF0FCFC002840F201705E
:1006D00008BF002012B010BDF0BD0000F6BD000044
:1006E00070B5134C134E20601348144D016014492B
:1006F0000A60144A1360049A134B1A6033780BB1E2
:100700000AF0BBFC2B78002BF8D0104B1B784BB1B8
:1007100023689A784AB1DB7840F20570002B18BF45
:10072000002070BD40F20370FBE740F20570F8E76F
:10073000D01200206F230020C81200206E2300205A
:10074000C4120020C0120020CC1200206D23002013
:10075000F0B5421ED11C034685B018D86E460D4C2C
:1007600004F11007354620686168083403C5BC42AF
:100770002E46F7D104A90F3311F8014D12F8010FDD
:10078000844204D19A42F7D1012005B0F0BD002087
:10079000FBE700BFFABD0000F0B50368044603F1B3
:1007A0006043B3F5004F4FF000009FB029D8826A34
:1007B000636816699E4224D8B3F5002F21D8656B73
:1007C00006F14003AB425ED8B5F5002F5BD8284652
:1007D000FFF7BEFF002856D0284609F0E5FD80B19E
:1007E0006B6973B1022B0ED1AB69C4F104011944DA
:1007F0004FF0FF32204600F0F9FD244BC31A584257
:1008000058411FB0F0BD40F2046328460293FFF741
:100810009FFF08B90020F4E700235F6B3846FFF71D
:1008200097FF0028F6D0A6F150039F42F2D8284641
:1008300003A909F0C0FD0028ECD0039DAE42E9D821
:10084000AC42E7D8B5F5002FE4D804A800F08AFE42
:1008500021462A1B04A809F01FFF04A809F01EFF67
:1008600000F094FE044600F095FE234600902946D1
:1008700005F1200204A800F0FBFD02900298B0FAF6
:1008800080F04009BDE70120BBE700BFE320BBDEED
:1008900030B54FF0FF3289B005460C4600F0A6FD9A
:1008A0000D4B984215D140F2022000F00DF91C22A8
:1008B000002101A80BF053FA084B29466846009323
:1008C0000AF046F86846211F0AF042F8684601F02F
:1008D00055FC002009B030BDE320BBDE010006431B
:1008E00010B5044688B040F2022000F0EDF81C225A
:1008F000002101A80BF033FA054B2146684600930E
:100900000AF026F8684601F039FC002008B010BD56
:100910000000034310B501F031FD01280DD1214B3A
:1009200004205A6E4FF480231F494B6601F5104195
:10093000086250035CBF1D4A53661D4BD3F88420E8
:10094000110606D44FF400621A67D3F88420D20649
:10095000FBD409F06EFD00F0A1F809F0BCFC09F031
:10096000BCFC18B14FF4017000F0BAF8FFF7AEFD0F
:10097000044609F0B4FC34B940F2012000F0B0F8AC
:100980004FF4017009E040F203739C42F4D0A4F2EA
:100990000574012CF4D840F2032000F0A1F80020E7
:1009A00010BD00BF008000500090005000A000501B
:1009B00000400050012337B58DF806308DF8073020
:1009C000314BD3F894305A060FD500F09DF8A0F2C1
:1009D000022080B2072808D8C923C340DB0742BFE2
:1009E00000238DF806308DF807304FF490335B68A4
:1009F000013308D14FF4027000F066F800238DF83F
:100A000006308DF807309DF8073063B14FF4903011
:100A1000FFF7C2FE8DF806009DF806301BB94FF4B3
:100A2000027000F051F89DF8063053B34FF40042C5
:100A30004FF0FF31154B9A6603F1744319664FF678
:100A4000FF7159660021124BC3F8D010BFF34F8FCE
:100A5000BFF36F8F08250F4CC4F88050BFF34F8F42
:100A6000BFF36F8F4FF440300B490861C4F88051D9
:100A7000C8604FF4903001F140618A66986009F0D7
:100A8000DCFC03B030BD00BF0040005000900050BF
:100A900000ED00E000E100E000A000444CF23C3238
:100AA000014B5A80704700BF000000204AF6C0305A
:100AB000044B5B8823F00F039BB21B1A584258412A
:100AC000704700BF00000020044A08B51080FFF7FF
:100AD000EDFF10B94FF20F03538008BD0000002056
:100AE00008B5FFF7F1FFBFF34F8F0549054BCA6803
:100AF00002F4E0621343CB60BFF34F8F00BFFDE70A
:100B000000ED00E00400FA054FF20F01084B5A888F
:100B10008A4201D1188870473AB91B8840F20220F6
:100B2000012B18BF4FF4007070474FF400707047EE
:100B3000000000204FF4003208B5044B9A6601F023
:100B400085FAB0FA80F0400908BD00BF009000505F
:100B5000072BF8B506460F4614461D4601D900205E
:100B6000F8BD0121202000F053FF0121212000F0D9
:100B70004FFF8CB144EA06039B07F0D14FF40032DB
:100B8000064B31469A66284623463A4601F088FAD3
:100B9000B0FA80F04009E3E70120E1E7009000505F
:100BA00030B5024600230C25054905FB03F4601807
:100BB0000C59944203D001330C2BF6D1002030BDE8
:100BC000A4BE0000F0B50023082787B0CDE90133AB
:100BD00015463B46009704AA044609F0CBFC41F2B7
:100BE00003039842064623D194F8433053B13A4662
:100BF000E06C04A909F050FD04AA3B461146A06C24
:100C000009F039FD059A049B6A6094F843202B6033
:100C100052B9094A934207D0084A934204D00822A5
:100C2000E06C04A909F038FD6B6823650023636557
:100C3000304607B0F0BD00BFF70A0AF7FC0404FC19
:100C40002DE9F04799465B6804460F469046002B15
:100C50003ED011F003033ED19B6A006E1B698118E0
:100C60001D1DA9421BD31C33984218D2A84202462C
:100C700038BF2A46994294BFC2EB010AC2EB030A6D
:100C8000101A3E18C5F168001044314652462044FF
:100C90000BF06DF85246FF2130460BF060F8226EE3
:100CA0000E4B9A420BD80E4902EB0800884206D937
:100CB0009B1AFA58C4F880204FF0FF32FA50D9E955
:100CC000003542463946206EA847236E43442366CA
:100CD0000020BDE8F08741F20200FAE7048001003D
:100CE000078001002DE9F04100254FF0FF37044651
:100CF0008846164603F0200380F842301822FF2170
:100D0000C0E91855A0F8405080F84350A0F844506E
:100D100080F84650C0F8887068300BF020F88822C0
:100D20002946C4E91286C4F88070C4F8847004F1BE
:100D300090000BF014F8074BC4F82071C4E9463555
:100D400084F8245116B1304600F00CFC0020BDE8B8
:100D5000F08100BF000101012DE9F04FA5B09946D7
:100D6000CDE91123002304460E464FF001082E9DC5
:100D70001393139978E094F846300C2B70D8062B17
:100D80004BD908FA03F212F4286F40F00B8212F4E8
:100D9000885F40F0B7810A2B66D1DFF8B4A3636D9A
:100DA000072B00F228814FF0080B382316AA2046A3
:100DB000CDE90188CDF800B011A909F0DBFB41F2C3
:100DC00003030A900A9A9A4200F03F810A9B5BE073
:100DD000A3F10E02052A00F28F82DFE812F0000371
:100DE0000600F50032023202FE020027636D0F2B6F
:100DF00000F28A80102314AA009320464023CDE9F4
:100E0000018711A909F0B6FB41F203030890089A83
:100E10009A4200F0CB80089B36E0013B052B27D897
:100E2000DFE813F074006E000600C001DC007801FA
:100E30000127636D072B00F2DE80082314AA0093BC
:100E400020464023CDE9017711A909F093FB41F237
:100E500003030B900B9A9A4200F021810B9B13E045
:100E6000A3F10D02062AB3D9494584D3002065E0D9
:100E700014AA204611A9FFF7A5FE41F2030205902E
:100E8000059B934208D0059B049341F20303049A07
:100E90009A423FF46EAF50E0159A149922650022F1
:100EA0006265A94A914240F00581022284F84620F9
:100EB000EAE7082314AA009320464023CDE90187DE
:100EC00011A909F057FB41F203030690069A9A42D2
:100ED00001D0069BD8E7149B03F07F43B3F1407F1A
:100EE00005D0132384F8463041F20903CCE7159B63
:100EF000D90706D594F8423043F0010384F8423014
:100F00000027636D072BD4D9012300E1204614AAE2
:100F100011A9FFF757FE41F203030790079F9F4275
:100F20000FD0079F41F203030497049A9A423FF4BB
:100F300020AF049B0BB10023F370049825B0BDE8EB
:100F4000F08F1498FFF72CFE28B9132341F20807FD
:100F500084F84630E6E7437994F824219A4205D98B
:100F6000132341F20E0784F84630DBE70268774925
:100F70008A4205D00289D20748BF013384F8243160
:100F800094F84230D9070DD5028994F8433092077E
:100F900006D53BB1132341F2010784F84630C1E77F
:100FA000002BF7D0037984F84630BBE7D4F848A08B
:100FB00000F0F4FA80230221CDE9000315AA0123F1
:100FC000504600F02BFA11E7226D0123A2650022A2
:100FD00084F84330E26584F84630CAE600213C22BA
:100FE00015A8149101270AF0BAFED4E914329342ED
:100FF00004D884F8467041F2030345E7009314AA2D
:1010000040232046CDE9017711A909F0B3FA41F256
:1010100003030990099A9A4201D0099B34E70DF124
:10102000500C06F108030DF1680E624603CA7245C2
:1010300018605960944603F10803F6D110681860EF
:10104000337843F001033370CFE7337843F0040380
:101050003370179BB36273785F071CD50020236D34
:10106000CDF850A0C4F8843094F84530606643F061
:10107000020384F84530EF686FB104222B6814A98D
:10108000B847606E2B685A46EF6816A90830B84713
:10109000636E103363660B2384F846307FE6337843
:1010A000159A43F002033370149B7360236D083B61
:1010B00073622AB1132384F8463041F20103E3E658
:1010C000042384F8463094F84530626643F0010307
:1010D00084F84530ADE6042314AA0093204640234B
:1010E000CDE9017711A909F045FA41F203030C900B
:1010F0000C9A9A4201D00C9BC6E6226D149B042ADE
:1011000001D923660127636D032BE4D9092384F8F1
:10111000463070E70023636607235CE79F4251D89F
:101120009F4228BF1F46402314AA2046CDE90188CC
:10113000009711A909F01EFA41F203030D900D9AD0
:101140009A4210D00D9B9FE6EB17A603F90707F90B
:10115000EB17A65E402F28BF40279F4228BF1F469F
:1011600027F00307DFE794F846B0BBF1070F2FD055
:10117000042FC7F1040A88BF4FF0000A14AB52468F
:10118000FF21D8190AF0EBFDBBF1090FBA442DD1AC
:101190002B465246204614A9FFF752FD0D900D9B99
:1011A000002BCFD1D4E914739F427FF6ADAEFF1A66
:1011B000DDE912329B1A94F84020032F1344ADD975
:1011C000032BC7D8204611A909F0B3F900235BE629
:1011D000D5F808A0BAF1000FCAD02B683A46606E65
:1011E00014A9D047636E3B446366DBE7BBF1040F91
:1011F0001DD173789807D5D5EB68002BD2D0626EDD
:10120000042A0BD80AEB0203062B07D915AB9B1A4D
:101210001A68C4F884204FF0FF321A60EF682B6818
:101220005246606E14A9B847636E5344DCE7BBF1C5
:101230000B0FB7D173785907B4D5EF68002FEED1F3
:10124000B0E700218A6A496B1269503A91423FF631
:1012500034AF112B0FD194F81831002B7FF454AE1A
:1012600041F206030E930E9A9A4202D1132384F898
:1012700046300E9B08E694F84430002B7FF444AED1
:10128000CDE90133402314AA0093204611A909F0A7
:1012900071F941F203030E900E9A9A42E9D1E06C83
:1012A00009F0FCF994F81831A3B104F1B4030093E8
:1012B000E06C04F194031CAA14A900F0D9F80E9074
:1012C0000E9BA3B10023F370132384F8463041F240
:1012D0000603D9E5D4F84CA000F058F9074600F011
:1012E00059F93B4600901CAA504614A9E5E7012392
:1012F000F37084F8443007E600234FF00408CDE98A
:10130000013314AA40232046CDF8008011A909F02A
:1013100031F941F203030F900F9A9A4202D00F9BCA
:1013200004930AE6D4F888202E4B9A4205D0132362
:1013300084F8463041F20503F2E70123F37094F894
:101340004530DA0707D5EF682FB1424640462B6893
:1013500004F18401B84794F845309B0707D5EF683E
:101360002FB104222B68104604F18401B847236E84
:1013700063B36F6857B34FF0FF3304F18008042262
:10138000414610A810930AF0C0FC20B10422414647
:101390002B681548B84704F168090422494610A88B
:1013A0000AF0B3FC90B100239B6A1422D3F810809A
:1013B00004F16C0108F10800D5E90037B847D5E918
:1013C00000370422494608EB0200B8470123B370F6
:1013D0000E2384F846300023A2E70023F37041F285
:1013E0000700ABE5E320BBDE0480010030B5082434
:1013F000094B00255C66012403F5FE235C60014473
:101400009D601A61DC60884201D1586A30BD10F8D5
:10141000012B1A62F7E700BF00900050F8B516469E
:101420004FF400521D46114B04469A660222C3F83F
:1014300060220F4609F037FDDDE90612204609F06B
:1014400036FD002384F8387063623368C4F839309D
:101450007368C4F83D30B368C4F841302B0C6DBAE2
:1014600084F84530A4F84650F8BD00BF0090005005
:101470002DE9F041B0B014460D461A460646369B9B
:10148000002867D0002965D0002C63D0002A61D0E5
:10149000002B5FD006214FF4005006912F4920AF5A
:1014A00088660320C1F860020021BE4609910C91B4
:1014B0000F9105F12008F446286869680835ACE802
:1014C00003004545E646F6D10DF1A00C04F1200ECF
:1014D000654620686168083403C57445AC46F7D199
:1014E0000DF1400C654602F1200E2C461068516843
:1014F000083203C472452546F7D118AC03F1200524
:10150000224618685968083303C2AB421446F7D123
:101510004023CDE90A73089320230AAA0E9303AB54
:1015200007CACDF81CC00D9683E8070007AB93E807
:1015300007008DE807000DAB0ECB094809F0EDFB65
:101540000690069B40F20460002B08BF002030B0DC
:10155000BDE8F08140F20160F9E700BF0090005063
:1015600054C000004FF40052074B10B59A66022297
:101570000446C3F8602209F094F82046BDE8104004
:10158000002109F092B800BF009000500048704759
:101590004CE30700004870476CE3070000487047C1
:1015A00086E207002DE9F3471446DDE90A920D466D
:1015B0001F4600284DD14CB313683F2B2AD85168E1
:1015C00051B32549002F14BFB846884603F03F06A3
:1015D0001B19136022BF536801335360FEB93F2CBF
:1015E0000ED9A3092A46009341463B46002009F044
:1015F00075F824F03F031D4404F03F0434B1002685
:101600002246294609EB06000AF0B1FB002002B091
:10161000BDE8F087B846D9E7DFF83C80D6E7C6F1E9
:10162000400A5445ECD32946524609EB06000AF01D
:101630009EFB0123264400934A463B464146002038
:10164000A6F1400409F04AF83F2C5544D6D9B846D3
:10165000C7E70248DBE700BF74BF000080AFFFFFB1
:101660002DE9F0411746146886B01E46E3008DF858
:101670000F3063098DF80E30630B8DF80D30630D5C
:101680008DF80C3053680546DA0002EB54728DF881
:101690000B2004F03F045A09372C8DF80A204FEA3A
:1016A00053324FEA53538DF80920884694BFC4F152
:1016B0003802C4F17802CDE900178DF808300D49E1
:1016C00003460020FFF76EFF08222B460020CDE9DD
:1016D00000870DEB0201FFF765FF284605F12003A7
:1016E00050F8042B984246F8042BF9D1002006B09C
:1016F000BDE8F08134BF0000044BD3F88420D2064B
:10170000FBD4D3F88400C0F3811070470040005030
:1017100038B5104B0546D3F820310C4603F00303CF
:10172000022B0BD0032B0DD0012B0FD1FEF778FE2F
:10173000052305B1286004B1236038BDFEF7A6FE7D
:101740000323F6E7FEF7B8FE0223F2E701230020A9
:10175000EFE700BF0080005073B50D4600210E4B2F
:101760000191D3F88041064604F00304012C09D00E
:10177000022C0CD00C460EB1019B336005B12C60DD
:1017800002B070BD01A8FFF7C3FF0F24F3E7FEF717
:1017900093FE0190EFE700BF0080005038B5184B72
:1017A0000546D3F824010C4600F00700062823D88C
:1017B000DFE800F0040A121A1E0E1600012305B11C
:1017C000286004B1236038BDFEF72AFE0523F6E742
:1017D000FEF726FE0623F2E7FEF758FE0323EEE7A8
:1017E000FEF754FE0423EAE7FEF766FE0223E6E76F
:1017F00008F069FD0723E2E700231846DFE700BF92
:101800000080005038B5104B0546D3F840310C46E7
:1018100003F00303022B0BD0032B0DD0012B0FD1B0
:1018200008F053FD092305B1286004B1236038BDD9
:10183000FEF746FE0823F6E708F04AFD0B23F2E721
:1018400001230020EFE700BF0080005038B5144BA3
:101850000546D3F800020C4600F0070004281BD808
:10186000DFE800F003090D111500012305B1286020
:1018700004B1236038BD08F028FD0923F6E7FEF720
:101880001FFE0823F2E708F023FD0B23EEE7FEF727
:10189000E7FD0E23800AE9E700231846E6E700BFCC
:1018A0000080005038B5104B0546D3F840320C4646
:1018B00003F00303022B0BD0032B0DD0012B0FD110
:1018C00008F003FD092305B1286004B1236038BD89
:1018D000FEF7F6FD0823F6E708F0FAFC0B23F2E723
:1018E00000231846EFE700BF0080005038B5104BCA
:1018F0000546D3F860310C4603F00303022B0BD0EE
:10190000032B0DD0012B0FD108F0DFFC092305B10B
:10191000286004B1236038BDFEF7D2FD0823F6E746
:1019200008F0D6FC0B23F2E701230020EFE700BF0D
:101930000080005010B40D4C0B46D4F8204204F047
:101940000304012C0AD0022C0CD008B10021016044
:101950000BB100221A605DF8044B70475DF8044B30
:10196000FFF7D6BE5DF8044BFFF74CBF0080005078
:10197000B0F5207F1FD009D8B0F5007F15D003D86F
:1019800068B1B0F5C07F0AD000200CE0B0F5607FF0
:10199000FAD10B4BD3F88000C0F3011003E0084BE1
:1019A000186FC0F3033001307047054BD3F8900037
:1019B000C0F30460F7E7024B186FC0F38020F2E732
:1019C000008000504FF400320E4B014610B500204D
:1019D0009A66FFF7CDFF484341F671320A490B4B37
:1019E000884294BF00200120DC69DA639A6822F4FF
:1019F000401242EA00529A60E20344BF0022DA63D6
:101A000010BD00BF00900050005A62020000035059
:101A1000420910B50FD0012A0FD00A4B0A4C022AF6
:101A200018BF234600F01F0049B103F5805301227F
:101A300082401A6010BD1346F4E7044BF2E703F549
:101A40000053F4E7688000506082005064800050CA
:101A500008B5802008F08DFE034B98429EBF4FF4DE
:101A60008032024B1A6708BD005A620200A0005083
:101A70001FB50023B0F5807F019377D028D8382890
:101A800000F094800BD82438092810D809280ED8E3
:101A9000DFE800F0676767670D0D620D377D52283C
:101AA0005FD008D83D283BD03E2800F084800198C4
:101AB00005B05DF804FB8028F9D1414B1B6F03F0A2
:101AC0000703013B032BF2D8DFE803F044413F6CEE
:101AD000B0F5D06F5BD019D8B0F5A06F66D00AD83A
:101AE000B0F5806F3DD0B0F5906FE0D1002001A936
:101AF000FFF754FEDBE7B0F5B06F2DD0B0F5C06F47
:101B0000D5D1002001A9FFF77DFED0E7B0F5006F29
:101B1000ECD00AD8B0F5E06F4DD0B0F5F06FC6D17B
:101B2000002001A9FFF7E2FEC1E7B0F5086FBED1C2
:101B3000234BD3F8003103F00303022B2CD0032BEB
:101B40002ED0012B30D1FEF7A1FC032300E00523AA
:101B50000193ACE70223FBE7002001A9FFF7FCFD9E
:101B6000A5E7002001A9FFF7D3FDA0E702934FF0FE
:101B7000E0231B695B0705D5FEF772FC0C2303937A
:101B8000039BE5E703A902A8FFF73CFEF8E7002066
:101B900001A9FFF75BFE8AE7FEF792FC0823D7E76F
:101BA00008F091FB0723D3E70123D1E7002001A927
:101BB000FFF7C0FE7BE7002001A9FFF773FE76E781
:101BC000008000504FF40022034B5A66012203F5B7
:101BD00080439A62704700BF00900050F8B50446F9
:101BE0008020FFF745FF032800F087804FF4002294
:101BF000424B02215A6645F60E03414AC2F8803034
:101C0000404B9962012103F580539962936DD9038A
:101C1000FCD4D4E900131B0543EA0163E17B94F88B
:101C200020500B43217BE77E43EA0143617B6D013A
:101C300043EA0133A17B43EA811313619169D4E93B
:101C400004031B0643EA806301F000410B43A17EBD
:101C500094F823000B43217E43EA0143617E43EA6B
:101C600001239361136AE66923F00D0394F82210AF
:101C700043EA8703002E2DD11362966A94F821302F
:101C800045EA031326F033052B4343F00103936227
:101C90001D4D1B4B9A6D35EA0202FBD10222194DF4
:101CA000AA621A659A6D5200FCD41A69A56822F4DA
:101CB000700242EA05521A614FF00042114B9A61DC
:101CC00019B9022203F580539A6278B901220F4BA9
:101CD0009A620BE0334343F008031362936A23F0E4
:101CE000330303432B4343EA4103936294F82430C4
:101CF0001BB1034B064AC3F88020F8BD009000508A
:101D000000C0005000D000500300014000E000502F
:101D1000F1A7FFFF014B93F90000704770230020EB
:101D2000014B1880704700BF5C100020B0F5207F89
:101D300010B50C4642D008D8B0F5007F33D003D898
:101D400088B1B0F5C07F0ED010BDB0F5607FFBD17B
:101D50001F4A4C1ED2F8803023F0300343EA0413AC
:101D6000C2F88030F0E708F0FCFC08F0C6FD4FF444
:101D70008031184B164A1967136F013C23F47043E6
:101D800043EA04331367FEF76BFB0446FFF7B4FC2A
:101D9000C0F10201204608F0AAFD00F02DF8BDE8D0
:101DA0001040FFF755BE0A4A4C1ED2F8903023F07F
:101DB000F85343EA0463C2F89030C5E7044A4C1E66
:101DC000136F23F4806343EA84231367BCE700BFE7
:101DD000008000500090005008B50121022000F062
:101DE0001DF808F0BEFC08F088FD4FF48032014B6E
:101DF0001A6708BD0090005008B54FF4C07008F095
:101E0000B8FCBDE808400449884294BF0121022182
:101E10004FF42070FFF78ABF80F0FA02F8B504464D
:101E20001C4BD3F88420D106FBD4D3F88430C3F301
:101E300081139C422CD0FEF7F9FA012C064602D100
:101E4000214608F054FD08F072FD4FF00072124B6D
:101E500007465A66204608F07AFD4FF480630D4D20
:101E6000621E93402B676B6E9A0103D4D5F88430C1
:101E70009B060AD5384608F05EFD022C08D1304694
:101E8000BDE8F840002108F032BDD5F88430EAE71B
:101E9000F8BD00BF004000500060005010B50C4677
:101EA00008B9FEF7C3FA074B21461B783BB1064B36
:101EB000984204D80120BDE81040FFF7AFBF0220D0
:101EC000F9E700BF71230020005A62024FF0004280
:101ED00038B5264B26495A6601224A604AF6CD316A
:101EE00003F50B235D6C1964154030BB9968C90775
:101EF0000BD4002401221F4B5A6015B11E4B1F4A00
:101F00001A6409F04AFC204638BD1A498A601C4A06
:101F1000D96ACC0705D4904201D10724EAE7013001
:101F2000F6E79042E5D1F8E70132DC6A14F00804E4
:101F300006D08A42F8D10724DFE700221049F4E7EF
:101F40008A42F8D020220B4B0B495A620122A3F59A
:101F500080539A6023460A4A486A800603D4934213
:101F6000E9D00133F8E79342C7D1E4E7009000508D
:101F70000050095000600950004009503254FFFFE2
:101F800040420F004FF0004238B5174B174C5A66CD
:101F9000012203F50C235A604AF6CD33656C2364A5
:101FA000437893401343124AD363C3788178A2687D
:101FB0009B0043EA011322F074021343A3600279E9
:101FC000837943EA022323614279C37943EA0223F6
:101FD00063610078FFF77AFFEB0744BF054B23648A
:101FE00009F0DBFB012038BD009000500040095093
:101FF000004000503254FFFFF0B5114A114C124E10
:1020000000F00105E3695F0713D40DB9334213D122
:1020100003EA00078F4207D10B4A1A40002A0CBF7F
:1020200000206FF00100F0BD013AEBD16FF002002B
:10203000F9E74FF0FF30F6E76FF00100F3E700BF7C
:102040008096980000000350020001004FF4003217
:1020500038B50F4B0F4C9A6641F671330122E56992
:10206000E3630D4B0021DA600223606121202361CC
:1020700005F48035FFF7C0FF10B92120FFF7BCFF42
:102080000122064BDA600DB10023E36338BD00BFC7
:102090000090005000000350001003500020035037
:1020A0002DE9F04F01274FF4402530262C4CDFF866
:1020B000BCC0DFF8BCE0CCF8047044F82050002429
:1020C0004FF4003506FB00E6F46534663467254CB2
:1020D000DFF8A090A56641F6713504F51C34D4F8FC
:1020E0001C80E563E568DFF890A03D43E56007FAF2
:1020F00000F04BB9E26818F4803F22F00102E26080
:1021000029D10020BDE8F08F01F5005505EA090549
:102110006D1A9D4228BF1D466161D4F81CB0AF08FE
:102120001BF0040F19D1013F3F0147F0605777665C
:10213000B266C6F86CA0CCF82400DEF834703842E1
:10214000FBD0094F294478630427CCF828002A449F
:1021500027615B1BCDE7E363D3E74FF0FF30D1E7A7
:102160000040045000900050002004500010045023
:102170000000045000E0FFFF18000350F8B5C369E9
:102180000446042B68D808F0D2FB344B344A596E0D
:102190004FF480333348536602F5E622C2F8000656
:1021A000C90300F50070C2F804065CBFA2F5E42282
:1021B00053662D4B2D4AE5691A6022685A602C4AF5
:1021C00004F1080303EB8501121B8B4202EB0300B1
:1021D0001FD1284600216368264CF3B9224A41EA00
:1021E000056191601368516892684B40534000222A
:1021F00082422CD144F82230BFF34F8F1E491F4B2F
:10220000CA6802F4E0621343CB60BFF34F8F00BF94
:10221000FDE753F8046F0660D7E70022D3F800E02B
:1022200004EB80079E68BC46C6F39906B24207F1EC
:10223000040706D3114410445A68012ACED05B68C3
:10224000CBE75EF822600132CCF80060EAE754F890
:10225000221001324B40CBE7F8BD00BF0080005098
:1022600000900050004C00A0004C00B0DEC0ECE537
:10227000044C00B00C4C00B000ED00E00400FA0586
:102280004FF480311A4B30B5586E03F580535966C0
:1022900003F5E623D3F8043603F1C042A2F58042E9
:1022A000B2F5606F01D9002030BDC20358BF114A9A
:1022B00003F1805358BF516618680F4A194690427F
:1022C000F1D11A69501DB0F5007FECD203F1140072
:1022D000940000EB82000022834205D10B1958695B
:1022E000831A58425841DFE753F8045B6A40F3E72A
:1022F0000080005000A00050DEC0ECE538B5104B67
:1023000010495A6E4FF48033D20358BF0E4A4B66C1
:1023100001F5E621D1F80456044658BF536640B192
:10232000FFF7AEFF40B1002005F180556B682360D8
:1023300038BD4FF4E020FBE74FF47E00F8E700BF24
:10234000008000500090005000A000504FF48032F8
:10235000064B5A6603F5E6235B69C3F38512827068
:1023600003F03F021B0B4270037070470090005057
:10237000014B986CD96C70470080E00F024B1868D5
:10238000C0F30740704700BF0080E00F38B5044637
:10239000054D09F015FA0FCC0FC594E8030085E848
:1023A0000300002038BD00BFD412002047F6FF73A1
:1023B0009A42F0B56FD002296FD8394B5B5C012B84
:1023C0006BD8384DDF0005EBC30415F83330A17826
:1023D000012B13D10025E078401AA84202D8084406
:1023E000C0B2F0BD431B6668A0EB530336F913601F
:1023F0009642D4BF1D4603F1FF30EEE76068002827
:10240000EFD0B0F90040944204DBB0F902409442AE
:10241000B8BF144683883D44FF2B19BFC8224FF034
:10242000280CB0F90620B0F908C0A2EB04030CBFD9
:102430000126002693FBFCF333446E781BB29E42C8
:1024400001DD002B01DA731E1BB24FF47A7C0133DD
:102450009BB2071D5D1E2DB24FEAC50E00EBC505F0
:10246000EA88AD689E4214FB025222EAE27202F14F
:102470005C02B2FBFCF204DD37F8335001339542C5
:10248000E8D200EB0E039888904228BF104688429D
:1024900038BF0846A4E7FF20A3E70020A1E700BF5C
:1024A00094BF0000D412002008B50448FFF76EFF67
:1024B000BDE80840012009F0A6B900BF98BF0000A0
:1024C000004870475E10002060B5054619B101391B
:1024D000B1F5806F0FD2094EF06810F48030FBD157
:1024E00043EA012312072B4302F08052134343F0C7
:1024F0000043736060BD0120FCE700BF0020025C68
:102500000122054B9A60DA68D203FCD4D86820F027
:102510000F000004000C70470020025C0322024BF5
:10252000186019615A6370470000025C82B01FB5E1
:1025300007930A9B04AC8B4228BF0B4604E90700B3
:102540001048D100079948BF03330160099948BF7B
:1025500023F0030323F0704301F0E041194341F0FD
:1025600000518160002102F0E042019C1A4342F0D8
:102570000052C16004618261416304B0BDE8104053
:1025800002B070470000025C3F22034B1A63102226
:10259000DA6103229A6370470000025C024AD36B3F
:1025A0009B07FCD4704700BF0000025C044B9B6A91
:1025B00013F0240F14BF012000208000704700BFDB
:1025C0000000025C08B5FFF7F1FF064BDB6B23F45C
:1025D0007F4323F0EF0303431EBF0122024BC3F8E6
:1025E000FC2F08BD0000025C00F0FF3F4368182B81
:1025F0000AD0202B1DD0102B2BD1174BD3F804342D
:10260000DB010AD401207047134BD3F804349A013C
:10261000F8D50B6843F008030B6003680F4A934238
:1026200010D10B6843F040030B600023436000208F
:102630007047094BD3F804345B01E3D50B6843F0D2
:102640000403E9E7064A9342F1D10B6843F08003A3
:10265000EAE70720704700BF0000025C73230020F8
:10266000722300200B4607B50749D1F80414C907A7
:1026700008D5002100920246084600F033F803B066
:102680005DF804FB0120FAE70000025C0B4607B589
:102690000749D1F80414C90708D500920121024660
:1026A000002000F01FF803B05DF804FB0120FAE7FA
:1026B0000000025C1FB50A4CD4F8044464070CD532
:1026C000CDE900120021069C0222CDE90234034626
:1026D000084600F031F804B010BD0120FBE700BF50
:1026E0000000025CF0B51C465B6815468DB01A0709
:1026F000129E1AD1CBB17268934216D10C4B0D4A7F
:1027000053F8217009AB07CA83E807001A46294627
:10271000CDE90533CDE90333CDE90163009447F4F6
:10272000807008F024FA0DB0F0BD0720FBE700BF71
:102730004CC000001CC000002DE9F0418CB0DDE968
:10274000127C7C681E46DDE9143E200728D13CB38C
:10275000DCF80400844223D15868102820D1DEF828
:10276000040010281CD10F4809AC50F821500E4924
:1027700051F822800D4A07CA84E8070045EA08009C
:1027800022463146CDE9054ECDE90344CDE901C4E9
:10279000009740F0300008F0EAF90CB0BDE8F08195
:1027A0000720FAE74CC0000028C000001CC0000051
:1027B0000138C0B206289ABF014B185C0020704750
:1027C0002FC100000138C0B206289ABF014B185C27
:1027D0000020704728C100002DE9F04FBBB08046B3
:1027E00003A880E80E001E467A4B1746D3F8002453
:1027F0008A46D4069DF8109103D401203BB0BDE871
:10280000F08F08F1FF32062A6DD8DFE802F00419D4
:102810001F252B313700D3F80C34D807EDD5012311
:1028200007930023B9F1010FCDE908332CD0B9F19A
:10283000020F5AD04046FFF7C5FF6324054631E03A
:10284000D3F80C349907D8D50223E9E7D3F80C3430
:102850005A07D2D50423E3E7D3F80C341B07CCD5B1
:102860000823DDE7D3F80C34DD06C6D51023D7E7FF
:10287000D3F80C349C06C0D52023D1E7D3F80C3410
:102880005806BAD54023CBE7524BD3F80C34D903C2
:10289000B3D5079B404643F4C0630793FFF788FF17
:1028A0000324054613230422009307A94FF0005385
:1028B00012A808F01AF95146009446F000533A461F
:1028C00008F013F94FF0000B04465E46DDF814A142
:1028D000469B9B452CD1B9F1030F42D14046FFF7EF
:1028E00071FFB84237D0072088E73A4BD3F80C2461
:1028F000D20382D5D3F80C349B037FF57EAF97B11A
:102900007C423946374604F00304079B404643F4B3
:10291000E0630793FFF74CFF24023E4605460F464F
:1029200044F0A304BEE704210DF1200A0C46ECE7B5
:10293000DAF8042016444AB1032300932046DAF85B
:102940000830DAF8001008F0D0F804460BF1010B5B
:102950000AF10C0ABCE7404608F029FA0138304277
:10296000C1D17EBB032332462046009308A93346DB
:1029700008F0BBF804260446103C204608F0CAF8CC
:102980002046314608F0D1F8489BAB4228BF2B4681
:102990001C46EBB10023224600934799499B0AA8A5
:1029A00008F0A3F82A1B04D000231946009308F06E
:1029B0009CF8103808F0AEF812A80AA908F08AF8B6
:1029C00000201BE716F0030618BFC6F10406D3E784
:1029D0000AA8E7E70000025C4FF40052034B002016
:1029E0009A660322C3F86022704700BF009000502F
:1029F0004FF40052034B00209A660322C3F8602272
:102A0000704700BF00A0005007B56B46054A10682C
:102A1000516803C36846FFF7B5FA002003B05DF8BC
:102A200004FB00BF36C1000030B58BB06C46174DBB
:102A30000FCD0FC40FCD0FC495E8030084E8030049
:102A4000134BD3F84C2112031CD5A3F5FE431C886D
:102A50004FF6FF739C4208BF78248DF81940FFF7AA
:102A600059F9204480F308008DF818000948FDF753
:102A700013FD6846FFF7B2F83220FFF751F9002046
:102A80000BB030BDD3F85041E4B2E6E740C10000DE
:102A90000080E00F00F04902014808F044BB00BF8D
:102AA000EC120020014808F013BB00BFEC1200201C
:102AB000014800F053B800BFEC1200200A4601465E
:102AC000014800F07BB800BFEC120020014800F084
:102AD000B5B800BFEC1200201FB50A79064B029270
:102AE0000A6808310192022200920CCB08F0FBFB2D
:102AF00005B05DF804FB00BF74C1000030B50B7970
:102B000085B00333029301F14403019302230C4681
:102B10000546114A009314310CCA08F0E4FB238ADD
:102B200004F12C010293E36828460193237A009371
:102B300094E80C0008F0D7FB0546237AA4F845007A
:102B40002279216884F8443004F1470009F00FF934
:102B5000284605B030BD00BF6CC1000038B5054641
:102B6000124B134C94E8030083E8030019462846EF
:102B7000FFF7B2FFD4E9020110220E4B83E80300F5
:102B8000194628461A72FFF7B9FFD4E90401022258
:102B9000094B18341A7283E80300DC601946284692
:102BA0001A82BDE8384008F09CBA00BFF01300203C
:102BB00088C10000981300206C130020F8B504466B
:102BC0000D4B0E4D0F46D5E9070183E8030019466A
:102BD00020461646FFF780FFD5E909010222084B7F
:102BE0001A7283E80300DF60194620461E82BDE8A2
:102BF000F840FFF783BF00BF4C13002088C10000DE
:102C0000F412002010B50C4630B907F06BFB034BF3
:102C1000186023600423A380002010BD401600200C
:102C200010B50C4630B907F05BFB034B186023600E
:102C30000423A380002010BD441600202DE9F74393
:102C400006466D464FF00809404C414B414F94E811
:102C5000030083E8030019463046FFF73DFFD4E93F
:102C6000020187E8030028463B4987F8089008F0EE
:102C700033FA95E8030007F10C0383E803003946B3
:102C80003046FFF73BFFD4E904010C234FF0020864
:102C9000324F87E80300284631493B7208F01CFA9E
:102CA00095E8030007F10C0383E80300394630463A
:102CB000FFF724FFD4E906012A4B2B4A83E80300DF
:102CC0001946304683F80880DA60A3F81090FFF7C1
:102CD00015FFD4E90801254B254A264FDA60012269
:102CE00083E80300194630461A8283F80880FFF70C
:102CF00005FFD4E90A0187E8030028461E4987F842
:102D0000088008F0E9F995E8030007F10C0383E86F
:102D100003003946194F3046FFF7F0FED4E90C01A5
:102D200087E803002846164987F8088008F0D4F998
:102D300095E8030007F10C0383E8030039463046A9
:102D400003B0BDE8F043FFF7D9BE00BF3CC20000AE
:102D500020160020C81500206FB10000701500205B
:102D600057B100001815002032C20000C014002026
:102D700031C2000068140020212C00001014002033
:102D8000052C00007FB500230130CDE9043380B26B
:102D9000054BCDE90101694604200093039208F038
:102DA000C3FA07B05DF804FB742300201B22014B1B
:102DB0001A8070474C230020F7B50346CDE9001276
:102DC00007460E4615464FF48040094A094908F067
:102DD000BDF90022012311460420074C23706770BF
:102DE0006680257103B0BDE8F040FFF7CBBF00BFA0
:102DF00014C4000074C2000074230020034610B500
:102E0000094A044609494FF4804008F09FF903221B
:102E1000074B02201A700022A3F801401146BDE8BA
:102E20001040FFF7AFBF00BFFDC30000A8C2000005
:102E30007423002030B50C4685B004A901E90C00CC
:102E4000054603460A4A4FF480400A49009408F0B8
:102E50007DF905220320084B02991A709DF80C2079
:102E60005D705C8005B0BDE83040FFF78BBF00BFF0
:102E7000E2C30000B4C200007423002037B503464B
:102E800005460C4600914FF48040094A094908F074
:102E90005DF90722084B04201A7000221146A3F89E
:102EA0000150A3F8034003B0BDE83040FFF76ABF0C
:102EB000C7C30000D8C200007423002038B5094AF7
:102EC00005460C460B464FF48040074908F03EF992
:102ED0000B22064B29461A7000202246BDE83840D6
:102EE000FFF750BFB7C30000FDC2000074230020ED
:102EF00008B54FF48040074A074908F027F9132224
:102F0000064B1A700022BDE8084011461046FFF734
:102F100039BF00BFA6C300000CC30000742300200B
:102F200073B50346144605460E4600924FF48040A2
:102F3000084A094908F00AF90922084B31461A7073
:102F4000A21C5A70032022465D8002B0BDE870408A
:102F5000FFF718BF90C3000012C3000074230020C5
:102F60002DE9F3411C469046CDE9001307460E4675
:102F700003460A4A4FF48040094908F0E7F8112354
:102F8000224641460520074D2B70231D6B706F8034
:102F9000AE8002B0BDE8F041FFF7F4BE75C300009B
:102FA00030C300007423002070B50D4603780C4A2E
:102FB00004460C494FF4804008F0C8F800230A4E3C
:102FC000691E204689B2738000F040F8024628B19D
:102FD00071882078BDE87040FFF7EEBE70BD00BF7D
:102FE0006DC300005AC300004C230020024610B5F8
:102FF000F8B1114B1968888890421AD39888002438
:10300000904281BF012009689880996098689988EA
:1030100020B904B198604FF6FF7203E08A4203D1F1
:103020000CB198609A8010BD01310124006889B20A
:10303000EEE70020F7E700BF481600204FF6FF72CA
:10304000014B18609A807047481600202DE9F04720
:1030500005780446122D0E4688B017D8012D18D9D0
:10306000AB1E102B15D8DFE813F0160014002F004C
:1030700014005A0014000D0114009F0014001400E5
:1030800014001400140050011400CC00522D00F064
:10309000DE8006253FE0022940F0B481B0F801301F
:1030A000B24A4FF48040B24908F050F8B4F80140F9
:1030B000B4F5007F28BF4FF400742046FFF79EFE52
:1030C000AC4B1C80002526E0042924D1B0F8033045
:1030D000A94A0093B0F80130A8494FF4804008F0A5
:1030E00035F8B4F8017006ACBEB22146304608F09F
:1030F00078F8054618B19F4B5F800A250BE09DF8D4
:103100001C303146022B18BF022094E80C0008BF87
:103110000120FFF78FFE284608B0BDE8F0870227A0
:103120008E1FB6B20196B0F80330954A0093B0F8FE
:10313000013094494FF4804008F008F804F1050884
:10314000E31D019600938DF81470CDF8108042466F
:10315000059BB4F80310B4F8010008F04FF84FF6DF
:10316000FF76B042054606D1A278637843EA02238F
:10317000804A5380C1E70023CDE90033CDF81880A1
:103180008DF81C7008AB0130314613E90C0080B299
:1031900008F034F80146B0421CBF00F1FF3189B29B
:1031A0002846FFF76BFE8DE7022940F02B81B0F82F
:1031B0000130754A4FF48040744907F0C7FF31462B
:1031C000B4F8010008F06CF86A4E054628B163783F
:1031D000A27843EA022373809DE733880146013BCE
:1031E000ADF81030B4F8010004AB06AA08F06AF894
:1031F00005460028EBD1BDF810100698FFF75EFEDB
:1032000089E78E1EB6B20096B0F80130604A4FF4DE
:103210008040604907F09AFF0821B4F8010008F0E7
:103220003FF8054630B1A278637843EA0223514A59
:10323000538070E701463346B4F80100E21C08F001
:1032400016F805460028EED1FFF752FE3AE78E1E2B
:10325000B6B20096B0F801304F4A4FF480404D4965
:1032600007F074FF0421B4F8010008F019F80146D2
:1032700000287FF427AF3346B4F80100E21C07F0C2
:10328000F6FF1FE70E1FB6B2022E02D0102E40F03E
:10329000B9800025B4F803304FF480400093B4F8AF
:1032A00001303E4A354907F051FFCDE90055631D15
:1032B00006938DF81C6008AB13E90C00B4F80310FA
:1032C000B4F8010007F09AFF4FF6FF7398420646E4
:1032D000284F05D16378A27843EA02237B800CE76C
:1032E0003B882946043BADF80E3004AA0DF10E03CD
:1032F00007F0E8FF054608B17E800CE73046BDF8D0
:103300000E200499FFF70CFE05E70E1FB6B2022E41
:1033100001D0102E76D10025B4F803304FF4804050
:103320000093B4F801301E4A144907F00FFFCDE9AD
:10333000005504F1050AF6B28DF81460CDF810A01E
:103340005246059BB4F80310B4F8010007F056FF8D
:103350004FF6FF7948450746DFF8188022D1637899
:10336000A27843EA0223A8F80230C6E6E0C40000CF
:10337000A8C200004C230020CDC4000025C40000DA
:10338000BAC4000043C40000B2C400006CC4000012
:10339000A9C4000012C30000A0C4000092C4000031
:1033A0007FC40000CDE90055CDF818A006AD8DF81A
:1033B0001C60013095E80C00494680B207F01EFF02
:1033C0000446B8F800304845A3F1060318BF00F1E1
:1033D000FF342A46ADF80E304FF0000138460DF1AB
:1033E0000E0318BFA4B207F06DFF054610B1A8F890
:1033F000027090E621463846BDF80E30069AFFF777
:10340000AFFD88E6042586E60022014B1A6070476E
:103410005416002003291FB503460A461CD901880B
:10342000081D824218D304D85888042805D00628DD
:1034300007D0012005B05DF804FB181DFFF7B4FDAF
:10344000F7E70023CDE90233044B694600930223DA
:10345000019307F069FFECE70020EBE76C10002018
:1034600037B500220DF10700114600F05FF89DF816
:1034700007300C4C0BB10023236021680A4DC1F5C5
:10348000017292B229440DF1070000F04FF8236851
:10349000C11828462160FFF7BDFF08B10023236053
:1034A00003B030BD541600205816002010B5044655
:1034B0004FF4807300210E4A0E4807F0C8FF4FF406
:1034C000807300210C4A0D4807F0C1FF2046FCF72D
:1034D00037FE07F07DFF00F02BFD08F0ABF8830707
:1034E00005D500F0EFFBBDE8104000F045BA10BD77
:1034F0008C190020741800208C1800205C18002003
:1035000008B513460A460146024808F05EF8C0B204
:1035100008BD00BF7418002008B5034807F0A0FFDD
:10352000003818BF012008BD74180020F8B50E46F9
:103530001746044607F0FBF9214605463B4632464E
:10354000044808F042F80446284607F0F4F92046FB
:10355000F8BD00BF5C18002008B5034807F080FFE5
:10356000003818BF012008BD5C180020F8B50E46D1
:103570001746044607F0DBF9214605463B4632462E
:10358000044807F0EDFF0446284607F0D4F920462A
:10359000F8BD00BF7418002010B50C460146044861
:1035A00008F03DF8A04234BF0020012010BD00BF4C
:1035B0005C180020F8B50F46114606461546FFF781
:1035C000EBFF044628B12B463A463146024807F045
:1035D000C7FF2046F8BD00BF5C18002010B5034CA3
:1035E000A07900F0FFFD0023236010BD8C1A00209D
:1035F0001FB50B4C0B4AA37A0B490393637A4FF424
:1036000080500293237A0193E3790093A37907F022
:103610009DFDA01D00F06AFD0023236004B010BDD5
:103620008C1A00207FC60000EFC400001FB5104CAC
:10363000104AB4F80D304FF480500293B4F80930BA
:103640000D490193A3790093B4F8073007F07EFD8C
:10365000B4F80710A07900F07BFDB4F80D10B4F8B1
:10366000090000F089FD0023236004B010BD00BFF5
:103670008C1A002051C6000018C50000014B99802B
:10368000186070478C1A00200022014B1A607047A6
:103690008C1A0020034A13681BB19288824200D121
:1036A000184770478C1A0020014B18701846704755
:1036B0007B230020162838B503464FF0020514BFBF
:1036C000034613230B4C0C4A4FF480500B49637094
:1036D000257007F03BFD2946204600F065FD00F00F
:1036E000E3FE074B074A05301A60627898809A71AA
:1036F00038BD00BF7B230020CAC600004FC50000B4
:103700008C1A0020DD35000030B504460378794A74
:103710004FF48050784985B007F018FD23780C2BC2
:103720000AD80C2B0BD8DFE803F05A3F790A0A0AB3
:103730000A0A890A0A0A1600142B00F0A5802046FE
:1037400000F020F9002867D1072223786B48022176
:103750000270437023E0A3884FF480500193638884
:10376000674A00936378674907F0F0FC4FF0FF3237
:10377000624C0C23A2700222E2700022237062715C
:10378000012340F2FF22637023715E4900924FF4DF
:1037900080505D4A019307F0D9FC0621204605B010
:1037A000BDE8304000F000BDE388584A58494FF466
:1037B000805007F0CBFCE179A379564A43EA012314
:1037C00093801346544943F8061BD4F80110C2F8FD
:1037D0000610B4F805209A80E2799A711CE063899A
:1037E0004E4A4B494FF4805007F0B0FCE27AA37A7E
:1037F000484943EA02238B800B46494A43F8062B8B
:10380000D4F80120C1F80620D4F805205A60B4F895
:1038100009201A81E27A9A7205B030BD6378414A74
:103820004FF48050404907F091FC00F03DFE394BC9
:103830003E4A05301A6098806278CEE7D4F80530A9
:10384000D4F801203A49CDE900234FF48050394A99
:1038500007F07CFC00F00AFAD4F80130274C63F042
:10386000FF03184009252346002203F8015BC4F832
:1038700001002F495A60CDE900024FF480502E4AD2
:1038800007F064FC294689E7B4F807302B4A029315
:10389000B4F805304FF480500193B4F80330284950
:1038A0000093B4F8013007F051FCB4F80310B4F8F9
:1038B000010000F06FFC1523104C6FF027022370FD
:1038C0000723E2702371E271237200216FF004007C
:1038D0004FF4FB62FB236070A1706071A1714FF423
:1038E0008050CDE9013216490092164A07F02EFCAD
:1038F000092153E7C1C6000065C500007B230020F5
:10390000B6C6000076C50000A7C6000099C6000034
:10391000A7C500008C1A0020F13500006BC600001E
:103920002D36000044C600004FC50000DD35000004
:10393000B7C5000039C600002AC6000020C6000036
:10394000D0C5000012C6000010B5084B4FF48050DF
:103950009C79074A2346074907F0F8FB204600F008
:1039600013FCBDE81040FFF78FBE00BF8C1A00208B
:1039700039C70000DBC600000122014B1A707047F6
:1039800087230020244B73B51E7804462EB103789C
:10399000162B05D0182B28D00026304602B070BD5B
:1039A00083781E49009343781D4A4FF4805007F0F6
:1039B000CDFB6378A278172003EA020404F0030425
:1039C000022C18BF0124FFF76FFE05464470847077
:1039D00023464FF48050134A1049009407F0B6FB79
:1039E0000221284607F0F1FCD7E7B0F803300E4A71
:1039F000019383780D49009343784FF4805007F08A
:103A0000A5FBB4F803100A48FFF738FED4F80120EC
:103A1000084BC3F80620C0E787230020EBC6000050
:103A200064C7000059C700004CC700000BC7000066
:103A3000493900008C1A002013B50D4B01281B8852
:103A40000C4CADF80030ADF8043002BF02238DF805
:103A5000003004236946206808BF8DF8043007F061
:103A60006FFE206801A907F081FE02B010BD00BF03
:103A700093C70000C01A002070B5334C11464FF4B4
:103A8000867086B01E46154607F063FB236933B97E
:103A900029464FF4837007F05CFB06B070BDA5F1BA
:103AA0000802324321D101AA0321206807F0C3FE96
:103AB000636860615B7A04F1180123769DF8043035
:103AC0000220DA1F53425341627E63F30002039BDC
:103AD0006276E361BDF8063063832369984701226B
:103AE0000021206807F0ADFED7E705F17F423243A1
:103AF00005D10021012006B0BDE87040184715F43B
:103B0000A04209D04FF480714FF4817007F021FB7F
:103B1000002103202369EEE705F4A0631A4308D0CF
:103B200001214FF4817007F014FB0021FF2023696D
:103B3000E1E705F0A0421A4319BF012140F201104C
:103B400029464FF48370EEE7C01A00200A4601466A
:103B500002484FF40073006807F069BEC01A0020E5
:103B6000F0B50446154D164A6B68807A5B7A85B0CD
:103B7000D75C0E46FFF760FF237A022B0DD100239E
:103B800039461A46286800F019FD98B10021FF2037
:103B9000334605B0BDE8F040184700222168009286
:103BA000039202918DF80C303946286802AB00F080
:103BB00013FDEAE72E6105B0F0BD00BFC01A00207A
:103BC0006BC700002DE9FF4104461B4D1B4A6B6883
:103BD000807A5B7A0E46D75CFFF72EFF237A4FF090
:103BE0000108022B08BF01238DF80430636818BF59
:103BF000226803F1640308BF00220293637A002461
:103C0000394600928DF80C306A46234628688DF8B4
:103C10000D808DF80E4000F0EBFC07464246214631
:103C2000286807F00EFE2FB12146FF20B04704B0F0
:103C3000BDE8F0812E61FAE7C01A00206BC70000D2
:103C400008B500214FF4857007F083FA0022044B79
:103C500003211A6118680122BDE8084007F001BD80
:103C6000C01A002000487047C81A0020014B188C69
:103C7000704700BFC01A00207FB502238DF80630C0
:103C8000064B5A8B59690332ADF8042018686A460E
:103C900007F0D5FD009807B05DF804FBC01A0020BE
:103CA000002313B5064C60600093437AD0E90021ED
:103CB000206807F002FE00F00DF802B010BD00BF52
:103CC000C01A0020024A138C43F480731384704797
:103CD000C01A002038B50D4C238CDB050CD5636869
:103CE0000B4D1B7A2A789A4206D0012B05D0022B65
:103CF00007D063681B7A2B7038BD206800F098FEEF
:103D0000F7E7206800F09AFEF3E700BFC01A002032
:103D10008823002010B50024064B1C60064B1C7045
:103D200007F081FBB0FA80F3044A5B091370044B7F
:103D30001C7010BDE41A00208B2300208A23002071
:103D40008923002010B5074B1C782CB9064B1B7833
:103D500033B107F070FB044600F066F8204610BD52
:103D60008124F9E78B2300208A23002038B50A46F6
:103D70000F4903460978C1B10E49087850B90E4C75
:103D800024783CB90D4C20681518B5F5806F02D920
:103D90008220087038BD1946094B184407F0E7FF28
:103DA0002560BDE8384000F00DB88120F2E700BF83
:103DB0008A2300208B23002089230020E41A00207E
:103DC000E81A002038B5134B134D1A782968022AD7
:103DD0000ED0032901D8002038BD104A1068104ABF
:103DE000904203D084200F4B1870F5E702221A701E
:103DF0000A48FCF7D9FB04462A680749074807F038
:103E0000EFFA002CE7D041F207039C42E3D0852073
:103E1000E9E700BF8A230020E41A0020E81A002006
:103E2000EB17A6038B2300200022014B1A7070476A
:103E30008A2300201FB5124C637A20460133DBB27F
:103E4000282B28BF25236372FFF72AFF0023CDE923
:103E50000233E368627C01930123617DD207094844
:103E600001F102018DF80C3048BF8DF80E30FFF7DC
:103E70006DFE054901A8FFF773FE04B010BD00BF39
:103E8000E81E0020FC1E00208D3E0000022810B518
:103E90001BD002D8012805D0FEE7032843D0FF2815
:103EA00041D0F9E7214C637C990707D5FFF7C8FE9D
:103EB000FFF7C0FF637C6FF341036374637CDA0731
:103EC00030D4BDE81040FFF7B5BF4B78DB072AD5EB
:103ED0004C68217801F00F03032B11D0052B22D160
:103EE000C90904F1080007F0A7FBD8B1FFF7A8FE45
:103EF000FFF7C2FE01462046BDE8104000F0DABAE6
:103F0000C90904F1080007F097FB58B1074C94F871
:103F10003D1004F13C000231FFF718FE637C43F0D2
:103F20000203637410BDFFF78BFECAE7E81E002092
:103F300010B50A4C5A220021204607F010FF42F229
:103F40001072C4F80220064A44F80A2C054A44F8C4
:103F5000062C42F2015224F8022C10BDF21E002061
:103F6000D6BE898E5555550038B50446FFF768FE14
:103F7000002C3FD0204C257C627CB5FA85F35B0990
:103F800063F300026274FFF76DFE837905F00F059D
:103F9000C3F3000345EA8315237D23F04F031D433C
:103FA000637D25750BB9062363750368C4F8163065
:103FB0008288124B9A80FFF755FE837994F83C2053
:103FC000C3F300039B0143F0040322F04F021343A9
:103FD00084F83C3094F83D3013B9062384F83D3022
:103FE0000368C4F83E308288054B9A80BDE83840AB
:103FF000FFF720BF38BD00BFE81E0020FE1E0020D6
:10400000261F002020290A4608B509D8054B06318D
:104010005975014603F11C0007F0A9FE002008BDF8
:104020001220FCE7E81E002020290A4608B50AD81D
:10403000064B063183F83D10014603F1440007F0BA
:1040400096FE002008BD1220FCE700BFE81E0020FD
:104050000A20D0B50B4CE38C584305F0EFFC064624
:10406000A08C0F4605F0EAFC0022074B05F050FD3E
:1040700002460B463046394605F074FE05F05AFFFD
:104080002083D0BD4C2000200000F43F1FB5154C0C
:1040900040F60100218907F05CF8A37E5A061FD480
:1040A00023F0070343F001032089A376FFF7F2FA18
:1040B000A37A04F10C00234493F82A306375FFF7C8
:1040C000EFFDD4E90032A3EB520103EB520302935C
:1040D0004FF48033019101A803490393FFF772FD68
:1040E00004B010BD4C200020714200000022134695
:1040F00030B58BB0D910415C03F007042141CC07E7
:1041000042BF02F12801694401F8283C03F1010390
:1041100048BF0132252BEDD100230C4CD910415C56
:1041200003F007052941C9075FBFB3FBF2F102FBAA
:104130001131283169444CBFD9B211F8281C013320
:10414000252B04F8011FE9D10BB030BD75200020EC
:1041500010B540F2E244074A6043136800F58070EE
:1041600004FB013303EB50031360536803445360B3
:1041700010BD00BF4C200020024B9884D984FFF76B
:1041800067BF00BF4C200020014B1875704700BF6F
:104190004C200020C908814228BF0146014B1985E7
:1041A000704700BF4C200020044B5A6D22B958655F
:1041B000A3F8581001207047002070474C200020C1
:1041C00010B504460346054A4FF40060044906F062
:1041D000BDFF2046BDE81040FFF76CBAE1C7000004
:1041E00095C7000010B504460346084A4FF4006026
:1041F000074906F0ABFF074A2046BDE81040937E12
:1042000043F04003937607F0DEB800BFD2C700004A
:1042100095C700004C20002010B5144CA37E5B060F
:1042200023D4FFF70DFD40F2E241A28C236801FB8D
:10423000023394F84F102360A37A0B442521B3FB7B
:10424000F1F001FB10330A21A3722389013323818A
:10425000636801FB02336360238B5A1E228323B9F8
:10426000BDE810400820FFF7BDBF10BD4C20002066
:104270000228F7B50E460BD003D8012800F00181C3
:10428000FEE7032800F00381FF2800F00081F7E734
:104290004D784F6815F00105814C64D14FF0FF3126
:1042A00040F6030006F055FF0025A37E7D4F13F076
:1042B000200F12D0616D6FF34513A376002900F033
:1042C000C5803B7894F8582043F00303B81C3B703A
:1042D0007A7007F04CFD00236365FFF71DF9A37E9C
:1042E00060F34103C3F3C002A376C3F300139B0042
:1042F00043EAC2033A7843EA001322F01C0203F0B7
:104300001C0313433B7040F60200398806F021FF7E
:10431000797864480231C9B2FFF718FCA37E766849
:10432000D90709D56FF30003A37600236360FFF775
:10433000A3FC2060FFF78CFE002D00F0AF803378E7
:1043400003F00303022B06D0032B00F09380012B14
:1043500040F0A480002528467278B11C03B0BDE867
:10436000F040FFF727B940F60300398806F0F1FE68
:104370003B78A27EC3F3001363F382023B78A276FC
:10438000D1B2C3F3C000C2F30012904210D0A17E9C
:10439000C3F38003C1F3C002934285D082F00102CF
:1043A000D20042F0200221F028010A43A2767BE7E6
:1043B00003F00302022A1DD0032A03D0012AE6D10A
:1043C000002018E0C1F3C002C3F38003934208D079
:1043D00082F00102D20042F0200221F028010A43BB
:1043E000A276A37EC3F3001282F0010262F30413EB
:1043F000A3765AE72846797891B9A17EC3F3800362
:10440000C1F3C002934201D10025EAE782F0010224
:10441000D20042F0200221F028010A43A276F3E7FD
:10442000FFF7BAF8A27E3978C2F3C003C1F3800166
:10443000994208D083F00103DB0043F0200322F00F
:1044400028021343A3760028CBD12DE794F8282027
:10445000B91C0DF10700FFF753F848B19DF807307C
:104460000133DBB23A78787063F301023A7034E7D3
:104470000123F7E77178B01C03B0BDE8F040FFF707
:1044800043B9074B9B7E9A0708D45B0706D4FFF716
:10449000C3FE03B0BDE8F040FFF7F8BD03B0F0BDC8
:1044A0004C2000204C1F0020014B1889704700BF92
:1044B0004C200020F7B5274D04460E465C22002113
:1044C000284607F04CFC2023AB7605232B83627E25
:1044D000237E012743EA0223AB84627F237F04F11A
:1044E0001E0043EA0223EB8494F82330C3F3040351
:1044F00085F84F3094F82330C3F3421385F85030D9
:104500001B232B85FFF7F2FDD4F80E30E27CEB6025
:10451000A37C2E6043EA0223227D2F7543EA0243E7
:104520002B6195F84F30607DAB72E18A3944FFF71B
:104530000FFEFFF7ABFDEB8C074A0093AB8C0749EE
:104540004FF4006006F002FE204606F03AFF3846BF
:1045500003B0F0BD4C200020C5C70000A8C7000074
:10456000F8B50D4610B900242046F8BD0E4F3E6840
:10457000002EF8D100F056F804460028F3D0386039
:1045800000F09CF8204607F081F838B130463E60D4
:1045900000F094F8204607F074F8E4E7002DE3D02B
:1045A0002046A847E0E700BFA8200020024B18687B
:1045B000003818BF01207047A820002010B507F070
:1045C00042FA044618B9034B01215B68984720461C
:1045D00010BD00BF2410002010B507F03DFA20B92F
:1045E000BDE81040014B1B68184710BD2410002087
:1045F00010B507F0C1F820B9BDE81040014B1B68A9
:10460000184710BD24100020431E033306D8044B66
:10461000984228BF1846642838BF6420704700BFFE
:1046200040420F00F8B5054606F081F907460F4BEA
:104630001E6826B9384606F07EF9344611E0B468A3
:104640008CB194F810C01CF0010F0CD14CF0010C8F
:1046500095E80F0084F810C084E80F00384606F093
:104660006AF92046F8BD3668E3E700BF1C10002059
:1046700038B505460C4641B10B6833B11B680133B0
:1046800003D0CB680BB18B684BB907F069FABDE872
:1046900038404FF492724121002000F0B3B908462F
:1046A00002F056F80023044A85F81031C5E930437A
:1046B000C2E9003338BD00BF8010002010B50446A9
:1046C00018B9054B054A136010BD00F009FBD4F87A
:1046D000CC30002BF6D1F4E76BB6000018100020A8
:1046E00010B50C4600F03AFB054B002103205B6837
:1046F00098471CB101F0D2FA0128FBD110BD00BFD0
:104700002410002008B502460868FFF77DFF086006
:104710004868FFF779FF48608868FFF775FF886091
:10472000C868FFF771FF0B69C860581C03D00B48BD
:10473000834228BF03460B614B69581C03D00748CE
:10474000834228BF034688694B61FFF75DFFBDE8E0
:1047500008408861104601F0E9B800BF40420F00F0
:104760002DE9F84FD0F8C43006460F4613B1038B3D
:104770008B4244D0D6F8C0B0BBF1000F42D0DBF87A
:104780000830002B3ED0DBF80C1000293AD0D6F8C8
:10479000D4A0BAF1000F38D04FF000094D46C846FA
:1047A00001E0DBF8083005EBC50203EB8204E38986
:1047B0000135BB4214D8238ABB4211D3B4F912206D
:1047C000B6F92430934250DD304696F80411FDF7D7
:1047D000EDFD737D81468342A04606D9DBF80C10BF
:1047E0008D42DED3B8F1000F39D000234246304667
:1047F0001946D0473783C6F8C48086F80D9100204B
:10480000BDE8F88F0320BDE8F88FD14647F6FF7565
:104810005446524604EBC40803EB8808B8F80E303F
:10482000BB4216D8B8F81030BB4212D3B8F91220E8
:10483000AA4202D14FF0FF09DCE7304696F8041196
:10484000FDF7B4FD737D81468342D3D94246DBF840
:104850000C100134A14204D9DBF80830DAE701205A
:10486000CEE7002AFBD09046C4E7A046BDE700BFD4
:104870002DE9F04782B004468946164601F0F2F968
:10488000002847D13B4D2B68D4F8C0A0D4F8C470A1
:104890000BB153454FD04FF00008C5F8089001F018
:1048A000FDF901283AD12B68DAF800103A6813B103
:1048B000186888424AD0204607F0B9F8C5E900A731
:1048C000D4F8D4508DF80760002D46D00022204641
:1048D00011460DF10703A847204600F025FD0546C7
:1048E000B8F1000F00D08EB1B5FA85F040F2DE329B
:1048F0003321400900F086F83146204600F01CFFC5
:104900001D4B0546394620461B689847284602B08D
:10491000BDE8F0870023174D6B60B4E7012000F07D
:104920001DFA164B002103205B68984701F0B6F989
:104930000128FBD1B7E76B68002BACD0BB42AAD1F2
:10494000AB68994514D04FF00108A6E7696811B12A
:1049500009689142B2D05968ADE7617D94F80D3194
:104960003246994228BF1946204600F063FCB3E75F
:104970000025CBE780100020181000202410002014
:10498000F8B50E46054605F0D2FF314607462846E3
:10499000FFF7E6FE044620B1384605F0CCFF20467E
:1049A000F8BD01F047F9224631462846FFF760FF7F
:1049B0000446384605F0BFFF2046F8BD4FF40073AB
:1049C00007B50A490DF10602ADF8063006F031FFD1
:1049D000BDF80630B3F5007F05D1022808BF0020DE
:1049E00003B05DF804FB0120FAE700BFAC20002013
:1049F000024B1960024B1860FEE700BF2010002038
:104A0000AC22002008B550B90548064B01601A6079
:104A1000054B1A68054B1A601868FFF7E9FF08BDD7
:104A200020100020B0220020A8200020AC2200206E
:104A3000014906F013BF00BFAD5E0000014906F05A
:104A40000DBF00BF815E000037B50C46234D59B93C
:104A50000A46072104F03AFE214BAC645C6003B0C7
:104A6000BDE8304004F050BE0722114604F02EFE8F
:104A700007221C4B0121DA60237901A885F8483010
:104A80006379019307F02DF9019BC2B2D34000F086
:104A90000F0040EA031085F84900A27985F84A2002
:104AA000E27985F84B202068E86401939BB10121ED
:104AB00002888B4208D82379013B13440A4A1362C7
:104AC00004F022FE03B030BD30F811500131AA428B
:104AD00028BF2A46EDE71A46EDE700BF003F00B0C9
:104AE000483F00B0006000B8004000B8431C07D049
:104AF0006FF0FF02034B10405A62A3F580535862D7
:104B0000704700BF00E000B810B504234FF03A41F1
:104B100001240A4AD1F81801C2F81831C2F8143138
:104B20004C634FF400511163410742BFC2F8143186
:104B3000A2F58052C2F8183110BD00BF002000BAA3
:104B400000F01803182B0AD003070AD440F201130F
:104B500010F0100018BF1846034BD86770470020AC
:104B6000FAE70120F8E700BF003F00B0344B2DE921
:104B7000F7431E6801F4007900F00103174653EA79
:104B8000090205460C462ED04FF0000803B300235F
:104B9000002201200021CDE9008803F0DDFB414621
:104BA000304602F08FFD414670830120FFF798FDEB
:104BB000716B06F1D80002F0FFFD22490868FFF78B
:104BC00095FF4FF0FF330B60337C43F004033374E5
:104BD000B9F1000F07D00121304606F016FE24F48B
:104BE000007405430C43D6E94A232A40234052EA85
:104BF000030103D01449304609688847FB070FD5E5
:104C00001249134A08680021136811600121114AF2
:104C1000117003B19847104B002102205B68984740
:104C200017F00E0F08D040F2F3123B21002003B022
:104C3000BDE8F043FFF7E6BE03B0BDE8F08300BF78
:104C4000A82000202C10002030100020C0220020BE
:104C5000C42200208E23002024100020F7B5044633
:104C60001046D4E94AC7DDE908268CEA020587EA3E
:104C700006010540194085EA0C057940C4E94A510E
:104C8000002523F4004106EA010320F0010043F46B
:104C90000073024043F00203CDE9005503F05CFBD2
:104CA000237C9A0717D5D4F82C319B0513D54FF4E4
:104CB0008811204606F0A9FD237C65F34103237487
:104CC000D4E94A2302400B4052EA030103D00349CE
:104CD000204609688847002003B0F0BD301000204E
:104CE00038B10368044A002B08BF1346034A136017
:104CF0007047014BFAE700BFE1B800003010002018
:104D0000024B986E00F00F00704700BF003F00B0EC
:104D10000F2938B505460C460ED800F0BFFF012814
:104D20000CD1074A2846936E23F00F032343936662
:104D300006F0A2FE002038BD0120FCE70220FAE7C1
:104D4000003F00B0014BD86E704700BF003F00B07D
:104D5000014B0020D9667047003F00B003282DE9C1
:104D6000F7434CD8274B13F80080274B1E5C274B8A
:104D700013F8009005F0DBFD074603F0BBFC054689
:104D800040B100230022CDE900330120002300219F
:104D900003F0E2FA03F0B6FC48B100230022CDE9AB
:104DA0000033002000234FF4004103F0D5FA26B36E
:104DB000174BDC6C04F00804164B3146DC644046AB
:104DC00003F0AEFE4A463146404603F035FF124B33
:104DD000DC6465B1114B1868416BD83002F0ECFC13
:104DE0000F490868FFF782FE4FF0FF330B6038462B
:104DF00003B0BDE8F04305F09EBD3446DCE703B0E8
:104E0000BDE8F08308C8000004C8000000C8000026
:104E1000004000B8006000B8005000B8A820002092
:104E20002C1000200F4A136C13F0A00F15D1506CFA
:104E300010F0040013D10C4BD3F8EC3E23F07F4369
:104E400023F0FF035BB1D368C3F30362092A07D0E1
:104E5000B2F10C0018BF01207047002070470120FC
:104E6000704700BF000002B8003000B070B50D46BA
:104E7000064620B9194B1B68A3B1032011E000F0CE
:104E80000DFF012828D1164B93F90040C4F12704E7
:104E9000641BC4F11C03002BB8BF5B42232B0CDD49
:104EA000012070BDA1F10B03002BB8BF5B42232B87
:104EB000F6DC0B4B19700020F3E7B57405F037FDF5
:104EC000084AE402136A04F4FF2423F4FF231C437A
:104ED000146205F030FDEEE70220E2E7A820002092
:104EE0008C23002000C000B8094B08465A6A910282
:104EF0000BD4D3F80021D20708D4D3F8803013F4B0
:104F0000706F14BF0120002070470120704700BF60
:104F1000004001B8F8B50D46436B02EA010423EAEC
:104F20000103234343633D4A01F00B0323EA0401D9
:104F3000D1642340A2F580526F070646D36410D592
:104F40000121FFF7D1FF60B103F08CFD4FF4007336
:104F500014F0040F14BF324A324A53620422324B17
:104F60001A64E90606D514F0100F14BF00221B22A4
:104F70002E4B5A652A061DD5230616D54FF400126E
:104F8000274B1A62012203F58053C3F8002105F074
:104F9000CEFC0E210746032002F05AFB40F201220C
:104FA000224B3846DA6205F0C6FC214606F1D800ED
:104FB00002F002FCEF0503D5E00529D502F018FB4D
:104FC000A90503D5A20526D502F01EFB15F0600F3A
:104FD00009D0D6F8C810304606F083FC8022144B66
:104FE0009867144B1A612B0510D503F03BFD124A4C
:104FF00014F4006FD2F8EC3E14BF43F0006323F0CA
:105000000063C2F8EC3E0422074B1A640020F8BD8E
:1050100002F0E8FAD4E702F0F1FAD7E7006000B84E
:10502000005001B8006001B8002002B8004000B88C
:10503000003F00B0000002B8003000B0014B186A19
:1050400002F018BB004001B8014B186A06F003BE1D
:10505000004001B8437C5A1F012A01D9082B05D111
:105060004B7C2BB1012B05D0022B05D006F061BC87
:1050700002487047024870470248704720A1070065
:1050800048E8010040420F0070B50E4605F04FFCA5
:10509000054600F027FE044620B1284605F04BFCEB
:1050A000204670BD03F0DEFC104B3278D3F8EC3EA6
:1050B000022A23F0F00315D0101F42424241520051
:1050C00043EA02137278022A0ED0111F4A424A4163
:1050D000520043EA8213054AC2F8EC3E0422044B14
:1050E0001A64DAE70122EBE70122F2E7003000B0B0
:1050F000002002B870B50E4605F019FC054600F018
:1051000007FE044620B1284605F015FC204670BD78
:1051100003F0A8FC104B3278D3F8EC3E022A23F0BF
:105120000F0314D0101F42424241520013437278C1
:10513000022A0ED0111F4A424A41520043EA82031A
:10514000054AC2F8EC3E0422044B1A64DBE7012254
:10515000ECE70122F2E700BF003000B0002002B807
:105160002DE9F8430E780446042E0D4690F804818C
:105170000BD100275FFA87F9484601F037FB08B1E9
:105180004E4602E00137042FF4D1304601F02EFBE9
:10519000002845D094F80431B34208D1AA88A36C02
:1051A0009A4204D16A88B4F806319A4235D084F81C
:1051B0000461AB883046A4F808316B88A4F8063146
:1051C000AB8804F58275A364FF23A37506F0CEFCBB
:1051D0006075284601F0CAFA18BB284601F0FCFAAF
:1051E000F8B9D4F8C43053B194F80411414506D04D
:1051F0002046B3F91220FDF7D9F884F80D012046B6
:1052000001F036FB0949A4F808010123084AD1F846
:10521000FC1004F1D80002F053FE0020BDE8F88332
:1052200001200E2384F80431F8E700BF004F00B0DE
:10523000A43F00B070B5054690F804010C460E2856
:105240001DD0FF291DD01AB14FF0FF320E4B1A604E
:1052500006F08CFC064695F8040101F0FBFA844246
:1052600028BF0446E4B2B44238BF3446E0B2A87561
:1052700001F0F2FBA0F1FF035842584170BD02203B
:10528000FCE70120FAE700BF3410002010B590F8C9
:10529000043104460E2B3ED0D0F8C4304175BBB368
:1052A000D0F8D420DAB990F80D318B421DD300220A
:1052B0002046FFF7BFFF88B9184B1B7813F0FD0F8E
:1052C0000BD1204601F0D4FA15490123154AD1F833
:1052D000FC1004F1D80002F0F3FD002010BDB0F97D
:1052E0002420B3F912309A42E1DD0022204694F8DE
:1052F0000D11FFF79FFF0028F0D1C4F8C40020462D
:1053000006F006FA01462046BDE81040FFF738BB1C
:10531000FF238375E1E70220E0E700BF661000206D
:10532000004F00B0A43F00B0C36B012B01D100209F
:10533000704770B505464D498EB006F04DFCD5F866
:10534000C46001462C8BC5F8C80026B1336813B180
:105350005B68002B5CD105F0EAFA05F0ECFA01235A
:10536000D5F8C8108DF80E30B389D6E90120E31ABC
:105370009BB200FB03223E48ADF80C30036802925A
:10538000994207D0284606F0ACFA802239493A4BB8
:1053900088671A61394C384E00F080FC0128FBD137
:1053A000236CDA07F8D4336CDB01F5D4D5F8C810D8
:1053B00028460D919DF80E20029908AB02F088FA5C
:1053C00018BB08A901A802F09BFCF0B92A8B2C4B52
:1053D0005A642B7C60F341032B7406F082FBD5F8F2
:1053E000C43002465B691968431EDBB2FD2B049191
:1053F00014D9CC1C12D9234B01311B6815D0D81CF1
:1054000010D8284604A904930AE002200EB070BD0B
:105410001A68032A9FD99B6A5B0EA3E7284604A952
:1054200006F049FB00200EB070BDD91C04D82846F8
:1054300004A9049306F03FFBD5F82C319B0504D456
:105440002B7C43F002032B74ECE74FF480312846A9
:1054500006F0DBF9D5E94A2302400B4052EA03018A
:10546000E0D00949284609688847DBE7FC4F00B0CF
:10547000B4220020003F00B0000002B800C002B813
:10548000008001B8401000203010002038B590F89E
:10549000105104463DB305F04AFA1F22124B013D5C
:1054A0005A621540114A12495562D4F814518D665A
:1054B000D4F81851CD66D1F80011C9070FD54FF0B7
:1054C000FF31C3F80411216CC2F804114FF0F04110
:1054D000C3F81011E37CDB060B40C2F81031BDE8C5
:1054E000384005F028BA38BD006001B8005001B856
:1054F000004001B82DE9F74F06461546084619B990
:10550000012003B0BDE8F08F002AF9D0032904D8A8
:10551000002101F065F80028F2D0B0F9001083787E
:1055200000290488077990F805B0B0F806C003F0A8
:105530000702C0F2CE80A2F10708D8F1000141EBCA
:105540000801052A297394BF0021C3F30011C3F396
:10555000801069739909287401F00201C3F3C00037
:105560000143C3F340136974AB74EF74736BA5F814
:1055700014C0D80600F19980063A012A00F29580FD
:10558000554B4FF001095B6D4FF03A431A6DDB6CE0
:10559000083C03F00703063309FA03F9002309F175
:1055A000FF3942F0005804EA090418F804A0013455
:1055B00004EA0904AB60631D03EA09035A1C02EA0A
:1055C000090218F8037018F80220BAF1800F737CF2
:1055D00018BFAAF1320A47EA02270CBF6FF07F0A10
:1055E0004FFA8AFA3FB2A3B30020D6F8D0300BB1FD
:1055F000514698470134E87385F80EA004EA09047F
:1056000018F80410013404EA090418F804300134CD
:1056100004EA090441EA032118F80430013404EAD9
:10562000090441EA034118F8043041EA036117F420
:10563000804305D0294BDB6EB3FA83F35B095B0033
:1056400030466A7C02F038FD06232860AB710020EA
:1056500057E7F90425D5D6F8C830ABB11A68022A45
:1056600012D993F82400C7F30B03DB0008B1B3FB96
:10567000F0F39B45B8D8002BB6D0CBEB0B20B0FB9A
:10568000F3F0C043C0B2B0E729463046FFF7E2FC72
:105690000190304606F03DF9019BB3FBF0F0C0B23B
:1056A000E1E718F804004000ECE700230020EB736A
:1056B0000B4BDA69C2F30723120448BF63F0FF0300
:1056C0005AB212F1800F1CBF323B5AB2AA73034682
:1056D000BBE7022015E700BF004000B8003F00B064
:1056E00000C000B870B54FF03A434FF480640A4DE3
:1056F000D3F818610020C5F81841C5F8144103F02B
:1057000077FA4FF400532B67730542BF034BC5F87C
:105710001441C3F8184170BD002000BA001000BA4F
:10572000082310B1024A13647047024AFBE700BF26
:10573000001002B8002002B8F8B504460E4611B9B0
:10574000037C5A0647D44FF6FF73A18BD4F8C87078
:10575000994204D0344B1B680BB120469847334D17
:105760002B68BB4254D0324B1B683BB11FB13A6827
:10577000002A4FD0BF683946204698470727204661
:1057800001F076F8002E39D003F0BEFF0620294B39
:1057900094F9122093F900302749C3F127039B1A8B
:1057A0000A6ADB0222F4FF2203F4FF2313430B6295
:1057B000D4F8C820214B2A60986701F0B5F900257C
:1057C00001211F4A1F4B1170204683F8845006F0B8
:1057D00053F92846F8BD4FF6FF71144DD0F8C87044
:1057E0002A6866F3861397428183037417D0104B9F
:1057F0001B68002BBAD101F03BF8072712493B4642
:10580000124AD1F8FC1004F1D80002F059FBBBE7B2
:105810000127B4E71746204639469847AEE701F01E
:1058200027F80127EAE700BFBC220020B4220020AD
:10583000B82200208C23002000C000B8006000B80F
:105840008D230020003F00B0004F00B0A43F00B007
:1058500008B558220021064806F081FA1022FF21DF
:10586000044806F07CFABDE8084003F04DBF00BFD5
:10587000F03E00B0343F00B0002373B58374692359
:10588000C0F8E03074234FF0FF350E26A0F8F43056
:1058900064230446C0E93933C0E93B33C0E9075506
:1058A00080F8046185644575C58202F033FF2046A7
:1058B000FFF7CEFF94F912102046FFF7D7FA6023C6
:1058C000114A40F6FF71D3644FF03A4211631167F9
:1058D0000E4A2946D36440220D4B20461A64626B5F
:1058E000FFF718FB002240F2022310461946CDE9CB
:1058F000006602F031FD00F08DFF204602B0BDE8E9
:105900007040FFF75BB800BF004000B8005000B81F
:10591000002002B8044BD3F8EC3E13F0806F14BFA4
:1059200023200020704700BF003000B00246F8B5C9
:10593000B0F8084100F1D805FFF7ECFF0B688E685E
:10594000013304BFD2F8E0300B604B68013304BF71
:10595000D2F8EC304B60771C37D1D2F8E830CF6802
:105960008B607E1C38D1D2F8E4600F69CE600137BD
:1059700004BFD2F8D8700F614F69013704BFD2F865
:10598000DC704F618F69013704BFD2F8F0708F610E
:105990008F6947BBC0F1640408688C61C2F8E830C5
:1059A0004B68C2E93806C2E93B340B692846C2F8A5
:1059B000D8304B690F49C2F8DC30D1F8FC1007230E
:1059C0000D4A02F07DFA0020F8BD04F169031B1AAC
:1059D000B34238BF3346C2E704F17406361ABE42FA
:1059E00038BF3E46C1E76934241ABC4238BF3C4642
:1059F000D2E700BF004F00B0A43F00B038B504F0BC
:105A000096FF4FF6FF710A4A13888B4203D104F0C8
:105A100092FF032038BD074C074D1B046566A4F5B3
:105A200080546366118004F086FF0020F2E700BF17
:105A300064100020006001B80000FFFF2DE9F34171
:105A400005460F461446FFF7EDF990B1DFF8E08107
:105A500002F0AEF9D8F81430DE0740F1CE8004F041
:105A600066FF0646032001F0D1FA38B1304604F053
:105A700062FF0226304602B0BDE8F081D8F814304B
:105A800013F0060FF2D1304604F055FF5C4B4FF493
:105A900000612846D3F8EC8ED3F8CC6E03F02AFED2
:105AA00038B14FF400720121564B08461A64FEF7D4
:105AB00017FE39462846FEF763FF514BC3F8CC6EFC
:105AC000C3F8EC8E06460028D4D12B7CD80601D42E
:105AD000002C55D0C4F3400002F08AFF022314F4D6
